:020000040000fa
:10000000f8ff0320c13e0000975200005359000042
:100010002b600000e7600000896100000000000024
:10002000000000000000000000000000715a000005
:10003000f75e000000000000414800007958000011
:10004000234600002346000023460000234600000c
:1000500023460000234600002346000023460000fc
:1000600023460000234600002346000023460000ec
:1000700023460000234600002346000023460000dc
:1000800023460000234600002346000023460000cc
:1000900023460000234600002346000023460000bc
:1000a00023460000234600002346000023460000ac
:1000b000234600002346000023460000234600009c
:1000c000234600002346000023460000234600008c
:1000d000234600002346000023460000234600007c
:1000e000234600002346000000000000000000003e
:1000f00000000000234600002346000023460000c5
:1001000023460000234600009123000091230000b5
:1001100091230000912300002346000023460000a5
:10012000234600002346000023460000234600002b
:10013000234600002346000023460000234600001b
:10014000234600002346000023460000234600000b
:1001500023460000234600006525000065250000b9
:1001600065250000652500002346000023460000a9
:1001700023460000234600002346000023460000db
:1001800023460000234600002346000023460000cb
:1001900023460000234600002346000023460000bb
:1001a00023460000234600002346000023460000ab
:1001b000234600002346000023460000234600009b
:1001c000234600002346000023460000234600008b
:1001d000234600002346000023460000234600007b
:1001e000234600002346000023460000234600006b
:1001f000234600002346000023460000234600005b
:10020000234600002346000023460000234600004a
:10021000234600002346000023460000234600003a
:10022000234600002346000023460000234600002a
:10023000234600002346000023460000234600001a
:10024000234600002346000023460000234600000a
:1002500023460000234600002346000023460000fa
:040260002346000031
:020000040000fa
:10026400f8b500bff8bc08bc9e4670474553000073
:10027400f8b500bff8bc08bc9e4670472153000087
:020000040000fa
:08028400d81000000100000089
:020000040000fa
:04028c00545e0000bc
:020000040000fa
:100290002de9f04f2ded028bd2e9008997b0cde921
:1002a0000c138b6808930b690f90d1e900b6149377
:1002b000cd68002200234046494605f0fdf840b9cc
:1002c0001bf0040f32d11bf00803059330d020231c
:1002d00003e089f0004399462d232b70089b03f11e
:1002e000ff3a012305934c4929f0004300208b423b
:1002f00008bf80451fd10d9b413b192b059b94bf27
:10030000464947492b44184605f012ff284605f098
:10031000bdfecdf800b00246089b0f98294603f0b9
:100320001dff17b0bdec028bbde8f08f2b23d4e787
:10033000ddf820a0d7e7994208bf404509d20d9bc0
:10034000413b192b059b94bf364937492b4418462e
:10035000dae7002200234046494605f0e6f99fed22
:100360002c7b8ded027b48b300240d9805f0adfe8b
:10037000002ec3b20993c0f2e781672b5ad1002e39
:1003800008bf0126231d02dbb442c0f2ca816527e3
:1003900061e09ded067b8ded027b01340022234b55
:1003a000dde9020102f094fc42464b46cde906012c
:1003b00005f066f80028ecd000271fe00446ede7c2
:1003c00014f5967f11da87b90022194b4046494649
:1003d00002f07efc002280468946154bdde90201d1
:1003e00002f076fccde902010127dde902010022dd
:1003f0000e4b01f0befccde90201013cdde9022318
:100400004046494605f058f80028d9d1ade700bf6d
:10041000000000000000f03f0000f07fac60000032
:10042000b0600000b4600000b8600000000024402c
:1004300000005043099f662f06f101060bd1002ce6
:1004400004da9fedbb7b8ded027b0024099b672bbb
:1004500018bf361966279ded027bcde906898ded23
:100460000a7b00230e93dde90a23dde9060101f092
:1004700080fc41ec100b03f0abf851ec100bb0ee2c
:10048000408af0ee608a04f09efdb0ee480af0ee7d
:10049000680a069b1093079b159083f00043119305
:1004a0009ded0a1b9ded102b05f028fa53ec102b47
:1004b00083f000430793dde90a01a14b8ded060aa5
:1004c000002201f056fc0e9b01339e42cde90a0149
:1004d0000e93c8d100229b4b02f0fafbcde90a0132
:1004e00002460b46dde9060104f0e6ff002840f075
:1004f0008580dde90a23dde9060105f016f910b172
:10050000159bda077ad5dde90a234046494601f012
:1005100011fb0022cde90601894bdde9020102f061
:10052000d7fbdde90623cde90a0104f037ff0028f7
:1005300069d0662f04f1010469d10136a146a9eb07
:10054000060310934ff000080bf01003059ecdf842
:1005500008801593109b994540f08380029b002be7
:1005600000f0c9800022652f05eb0600aa5529d1ad
:10057000149b1499013b9442ea54c1f1030ebcbf91
:10058000644201220a21002c40f0bc800eeb030cd7
:10059000bcf1000f00f3b680002a03f1ff3114bf55
:1005a0002d222b226a540d9a413a023b192a98bff8
:1005b00045279e4205eb0301ef54aaf1020a01da36
:1005c00005f0b6fd0bf00303022b7ff49faebaf1ea
:1005d000000f7ff79bae284605f058fd05eb0a0398
:1005e000059a824240f39980059b2b441846524657
:1005f000302105f043fd0023089387e69fed4e7bf5
:100600008ded0a7b7fe79ded027b8ded0a7b652feb
:1006100014bfa1464ff0000991e7029a52b9b9f10f
:10062000000f07da0e992e226a54012201360af1d0
:10063000ff3a029205eb0801aa19314403e04ff09a
:10064000300002f8010b9142f9d108eb0602303379
:10065000aaeb080808f1ff3a561cab544ff000080b
:1006600027e00c9b0e961b69053bb3427ff676afe5
:10067000dde90a23dde9060101f07bfb41ec100b0b
:1006800002f0a6ff51ec100bb0ee408af0ee608a4b
:1006900004f099fc159a09280346a8bf09230243d0
:1006a000bbd1099a672ab8d1b9f1000fc2da08f1b3
:1006b0000108069b1293079bb0ee480af0ee680a09
:1006c00083f0004313939ded0a1b9ded122b05f063
:1006d00015f953ec102b83f000430793dde90a0171
:1006e0000022174b8ded060a01f043fb09f1ff399b
:1006f000cde90a012ee71bf0100f1ebf2e23ab55cc
:1007000001362fe7b4fbf1fc013b01fb1c44303404
:10071000ec540af1ff3a644635e72a5c1a54013872
:100720005ee7002cbff696ae662784e6062629e62d
:10073000000000000000f03f00000000000000008a
:100740000000244000001440099b672beed01f4698
:04075000062670e623
:020000040000fa
:0407540001207047c9
:020000040000fa
:100758002de9f04f95b0cde912030b68089392ed9f
:10076800007b4b680a938b6809930b690d93cc68df
:100778000022002351ec170b8ded047b04f098fe4a
:1007880040b9089b580734d4089b13f0080732d0a7
:10079800202306e0dde9042181f00043cde90423ac
:1007a8002d232370099b01275a1edde90403dff876
:1007b800f8b223f000414ff0000a594508bf5045f0
:1007c8001bd1139b413b192b04eb070094bfb04985
:1007d800b04905f0a9fcaf4805f054fc089b00930c
:1007e8000246099b1298214603f0b4fc15b0bde8f7
:1007f800f08f2b23d5e7099ad7e7139b8b45a3f1f5
:10080800410308bf82450b9309d2192b04eb07005b
:1008180094bfa149a14905f087fca048dce7302135
:10082800e1550b997b1c1a2934bf58217821e154d2
:10083800931e079300220023dde90401023704f028
:1008480070ff002800f07b819fed8f7b8ded027b90
:1008580000260a9bdde90289002bdde904abb8bf5d
:1008680018230e93002542464b465046594601f040
:100878007cfa41ec100b02f0a7fe42464b4651ecc5
:10088800100b8ded100b02f01ffa02460b46504676
:10089800594605f069fc824b82468b4640464946dc
:1008a800002202f011fa6b1c0c930a9b002b804665
:1008b800894606da002200235046594604f031ffe3
:1008c80028b90e9bab4200f3408101330c93002200
:1008d800744b4046494602f0f7f98046894602467d
:1008e8000b465046594604f0e3fd002840f02f819e
:1008f80042464b465046594604f013ff30b1dde9f5
:10090800100104f05cfbc10740f1218142464b46cf
:10091800dde9040101f00af9cde90401dde904216a
:1009280021f00043604900208b4208bf82423ff417
:1009380048af4ff000083d46c246c1460d9b053bf7
:10094800ab42ab4633d9dde90223dde9040101f00e
:100958000cfa41ec100b02f037fe51ec100b8ded48
:100968000e0b04f02cfb002840f0f680b9f1000fc4
:1009780000f0f28008f10108dde90223dde90e014b
:1009880002f0a2f902460b46dde9040105f0ecfb92
:10099800434bcde904010022dde9020102f094f99c
:1009a8000c9b09f101094b45cde90201c6d1baf109
:1009b800000f1dd1b8f1000f00f015810a9b002b24
:1009c80040f31181089bda0700f10d812e2308eb13
:1009d8000502635522446319302103f8011f9a4226
:1009e800fbd1079b45446fea080843440135079348
:1009f8000d9b0d990022013b9642625504eb0500c0
:100a0800e254bcbf76420122c1f1020e4ff00a083f
:100a1800002e40f0d8800eeb030cbcf1010f00f063
:100a2800d280002a03f1ff3114bf2d222b226254f9
:100a38000b9a023b1a2a34bf502270229d4204ebc3
:100a48000301e25401da05f06ffb089b03f003038e
:100a5800022b14d1079ba3f10208b8f1000f0edd99
:100a6800204605f00ffb04eb0803b84280f2b7807c
:100a780042463021e01905f0fdfa0023099320468b
:100a8800aae600bfaff30080000000000000f03fbe
:100a98009c600000a0600000a4600000a860000046
:100aa8000000b03f000020400000f07fcde902893f
:100ab8000136dde902231046194601f037f8804671
:100ac800894602460b46dde9040104f0f1fc0028e2
:100ad800ecd0dff82cb1dff82c914ff0000a4ff082
:100ae8000008dde90223dde9040104f0e1fc002847
:100af8003ff4afae52465b46dde9020102f0e4f88e
:100b08000022002304f00dfe78b142464b46dde991
:100b1800020102f0d9f84246cde902014b46dde96f
:100b2800040102f0d1f8cde90401dde902015246e1
:100b38005b4602f0c9f8013ecde90201d1e79fed1d
:100b48002e7b06468ded027bb3e70c9d8be64ff0be
:100b580000084ff00009d9e6baf1000f0bd1b9f13e
:100b6800000f08d02e2304f80b30079b013b0135fa
:100b780007934ff0010a04eb080362192b4403e0c2
:100b88004ff0300102f8011b9a42f9d1079b05eb9f
:100b9800080ba3eb08080b9b0928d4bf303057304b
:100ba800192b06d840f02003613b192b01d805f01a
:100bb8008ffa08f1ff330bf1010504f80b000793d6
:100bc8004ff00008d8e60799b6fbf8fc013b08fb94
:100bd8001c6630360139e6540791664618e7225cf0
:100be8001a54013841e7089bdb067ff501af2e2335
:100bf80063550135fce600bf000000000000f03f2f
:080c08000000e03f0000504332
:020000040000fa
:100c10002de9f04fa3b0b14bd3f800b0bbf1000ffa
:100c200001d05e46d7e0ae4911f8012fad4803f080
:100c3000cff948b1a94bd3f800b0bbf1000ff0d108
:100c4000012023b0bde8f08fa74b1b78002bf1d11a
:100c5000a54b01221a70ede700237375a34d06f131
:100c6000120803273a462968404604f0d7fe0028b8
:100c700000f0ec810c359e4b9d42f3d10023338272
:100c8000a5e00d283ad00a2838d0082800f06b815a
:100c90007f2800f09f811b2800f0bf81f26906f1d8
:100ca0002005531b4f2b00f2c181b369d31a00f00a
:100cb000b981002b05ddd01a12f8011d5170824256
:100cc000fad1f269511cf16100215170b26901320f
:100cd000884906f1720005f068f8314601f8714f55
:100ce000daf8003048469847b3695a1cb2611c7064
:100cf000b369f26993426ad9f36168e006f12003af
:100d00001a460293f36993421ad0daf800307a490e
:100d100048469847f36900251d70029cf461b46150
:100d20002022294605a805f0a9f9736803935122ea
:100d300021460da805f002fa0dacab4601951ee068
:100d4000daf800306d494846984740e097b30137dc
:100d50002221384605f020f90446002800f0fd80e5
:100d6000874200f0fa8080f800b0072d04d822ab4b
:100d700003eb850343f8747c013501341ad022213a
:100d8000204605f009f9074608b180f800b005ab28
:100d900003eb850820465a4904f036fa034600283a
:100da000d4d0072d98bfc8f80030013508f10408e9
:100db0000198f0e7082d3ddd33685b680822514952
:100dc00003989847daf800304f4948469847b66884
:100dd000002e3ff435afd6f800a0d6f80490daf82c
:100de0000c30484698470028f1d0daf810304846d1
:100df00098470446b6f91030002b3ff442aff21882
:100e0000907401331cb23482032c3ff425af022cc2
:100e1000ddddf568ab689c42d9d1296806f1120086
:100e200005f05ef818b96b682946304698470023ec
:100e30003382cce72db933681b683449039898474f
:100e4000c0e7002d40f38980d6f8cc30d6f8d040ea
:100e5000a3422ed06268c6f8d0201360d6f8cc30fa
:100e6000d6f8d0205a605122029904f1080005f00a
:100e700065f9d6f8cc301bb32360d6f8d030636068
:100e80001c60d6f8cc305c60c6f8cc400023c6f8b5
:100e9000d430059b01931e4c2168019805f020f881
:100ea000a8b10c341b4b9c42f6d1dff86cb0a846bd
:100eb0003fe00022c6f8d020c6f8cc201c46d2e77e
:100ec000c6f8d040c6f8cc4064602460dee76368b2
:100ed00005aa29463046984774e700bf8caa00202f
:100ee000e4aa0020845f0000feaa0020c051000098
:100ef000085200008c1a00003c190000d0180000b5
:100f0000c4190000c8190000681a0000001a000087
:100f1000005b0000245b00000ca70020636805aaaa
:100f20004146304698474de70bf1100b484b5b4567
:100f300013d0dbf80440002cf6d0dbf80050002d75
:100f4000f2dd00272168019804f0caff0028e5d0ef
:100f500001370c34af42f5d1e6e733681b683d49f1
:100f6000039898472ee7b16906f1200399427ff66e
:100f70002eaff369994221d24a1e5b1a002b07dd7e
:100f8000581e014412f8010f02f8010c8a42f9d1ef
:100f9000b269013ab261f269511ef161002102f8b1
:100fa000011c06f17104b2692b49204604f0fdfed4
:100fb000daf8003021464846984708e7daf800306a
:100fc000264948469847b369013bb361f369013b41
:100fd000f361fce6f369b26993427ff6f8ae511c07
:100fe0005b1a002b06ddd01812f8011f02f8011c55
:100ff0008242f9d1f269511ef161002102f8011c0f
:1010000006f17104b2691649204604f0cefedaf802
:101010000030214648469847d9e61b23b374012384
:101020003382d4e6002386f8723056e60d4cdaf8a7
:10103000003004f5e67148469847f561b561daf885
:10104000003004f5d07148469847c0e6f560e0e608
:101050008ca70020381a00006c1a0000781a0000d3
:08106000801a0000c81800000e
:020000040000fa
:101068002de9f04fadb00027dff8e4a20391064662
:101078001546b8464ff0ff3903990b78002b00f05e
:10108800f9800cabcde907890a938023cdf8248039
:101098000b9300240b5d0bb1252b26d134b12246ce
:1010a800304604f0cbfc039b23440393039b1a783c
:1010b800252a40f0d78003f1010bcdf80cb0039836
:1010c80003782b2b1ad025d8202b1bd0232b1dd0ef
:1010d8002a2b27d004f0b8f80990039b1a78303ae5
:1010e800092a2ed801330393f7e70134d2e7079b87
:1010f80043f00103013007930390e0e7079b43f0b7
:101108000403f7e7079b43f00803f3e7079b43f063
:101118001003efe72d2bead0302bd9d1079b43f0f2
:101128000203e7e72b681a1d1b682a600130002bb1
:101138000390099305da079a5b4282f0010207924d
:101148000993079bda0744bf23f002030793039b25
:101158001a782e2a0dd1581ccdf8208003905a7881
:101168002a2a25d1023303932b681a1d1b682a608b
:10117800089303a804f064f9039b0190187804f01d
:10118800a0ff6928019979d032dc632800f0c68075
:1011980019dc252800f0d080612853d025238df84c
:1011a8001030cdf80cb0cdf81c80cde90898c0e01f
:1011b80004f04af80890039b1a78303a092ad8d8dc
:1011c80001330393f7e7642858d06728e6dc2a46fa
:1011d80004a804f0a5fb002800f09c80039b5a1c7f
:1011e80003921b7804aa07a93046fff74df838e0a8
:1011f800702873d015dc6e2800f087806f28cdd159
:101208002b46002204a802f059fb002800f0828037
:10121800039b04aa013307a93046039303f0c4f9da
:101228001fe075283ad0782848d07328b6d180298d
:1012380070d1039b2a6801330393131d2b60126836
:1012480000235be02a4604a804f06afb002861d06a
:10125800039b5a1c03921b7804aa07a93046fff780
:1012680077fa04443c44a7426edd384b4f221a609b
:101278004ff0ff3738462db0bde8f08f2b460122de
:1012880004a802f01bfb002844d0039b04aa0133e6
:1012980007a93046039302f0bbfbe2e72b46002286
:1012a80004a802f00bfb002834d0039b04aa0133e6
:1012b80007a93046039303f0f3fcd2e72b4600223c
:1012c80004a802f0fbfa28b3039b5a1c03921b786c
:1012d80004aa07a9304601f021fec2e72b460022e6
:1012e800f02104a802f0eafaa0b1039b01330393aa
:1012f800dde90423134306d10023524607a93046eb
:1013080003f0a2fcade77823e2e72b463a1904a8dc
:1013180003f05af8039b01330393a3e78029f9d11b
:10132800039b013303932b681a1d1b682a608df8f1
:101338001030012304aae1e78029ebd1039b8df843
:10134800100001330393f4e7274695e6f8aa002036
:041358008a5d0000aa
:020000040000fa
:10135c002de9f04f099f154604468e461e46002b7c
:10136c0040f0cc808a42b2fa82fc4cd9bcf1000f1e
:10137c000bd0ccf1200801fa0cfe20fa08f802fa86
:10138c000cf548ea0e0e00fa0cf44fea15491ffa58
:10139c0085f8befbf9fa210c09fb1ae30afb08fbe2
:1013ac0041ea03439b452ad9eb180af1ff3004d2da
:1013bc009b4502d9aaf102002b44a3eb0b03a4b268
:1013cc00b3fbf9f209fb123302fb08f844ea0344bd
:1013dc00a04516d92c1902f1ff3303d2a04501d92f
:1013ec00931e2c44a4eb080443ea004027b124fad2
:1013fc000cf400233c607b603146bde8f08f504616
:10140c00dbe71346eee702b9ffdebcf1000f2ed18d
:10141c008b1a01264fea154eaab2b3fbfef8210c2b
:10142c000efb183308fb02f941ea0343994561d9d5
:10143c00eb1808f1ff3004d2994502d9a8f102004b
:10144c002b44a3eb0903a4b2b3fbfef10efb113347
:10145c004a4344ea0344a2424ed92c1901f1ff330a
:10146c0003d2a24201d98b1e2c44a41abce7ccf1a6
:10147c00200e02fa0cf521fa0ef901fa0cf320faff
:10148c000efe4eea03034fea154800fa0cf4b9fbc2
:10149c00f8f11ffa85fe08fb1192180c01fb0ef6f1
:1014ac0040ea0242964221d9aa1801f1ff3003d238
:1014bc00964201d9881e2a44921b9bb2b2fbf8f9c2
:1014cc0008fb192209fb0efe43ea02439e450fd985
:1014dc00eb1809f1ff3604d29e4502d9a9f1020698
:1014ec002b44a3eb0e0346ea004693e70846e3e7da
:1014fc004e46f6e74046a4e70b46b6e78b4206d9c4
:10150c00002f7ed00026c7e90001304674e7b3fafd
:10151c0083fcbcf1000f0fd18b4201d3824209d85e
:10152c00841a61eb030e0120002f6dd0c7e9004e29
:10153c00002661e76046f7e7ccf1200e03fa0cf3c6
:10154c0022fa0ef521fa0ef41d4301fa0cf320fadf
:10155c000ef10b434fea154a00fa0cf6b4fbfaf9fc
:10156c001ffa85f80afb19401c0c09fb08f144ea28
:10157c000044a14202fa0cf23fd92c1909f1ff30b8
:10158c0004d2a14202d9a9f102002c44641a9bb2e4
:10159c00b4fbfaf90afb194409fb08f843ea0441c5
:1015ac0088452cd9691809f1ff3304d2884502d932
:1015bc00a9f10203294443ea0040a1eb0801a0fb76
:1015cc0002894945c2464c4602d306d1464504d24f
:1015dc00b8eb020a69eb05040138afb1b6eb0a03ac
:1015ec0061eb040606fa0efe23fa0cf34eea030333
:1015fc0026fa0cf6c7e900369ae74846c6e74b468a
:0c160c00d9e73e463846f7e63e46f5e6d4
:020000040000fa
:10161800b0a900201c0000000000000084a90020e0
:101628002c000000000000000ca600208000000034
:10163800000000008ca600208000000000000000d0
:1016480044a900204000000000000000cca90020b0
:10165800180000000000000058a8002058000000f2
:10166800000000008ca700206800000000000000b7
:1016780094aa0020040000000000000084aa0020b2
:10168800080000000000000098aa002004000000e4
:101698000000000000ab0020040000000100000072
:1016a800aaaaaaaa9caa0020040000000000000020
:1016b8000000002000a0000000000000a0aa0020f8
:1016c8000400000000000000a4aa0020040000009c
:1016d80000000000a8aa002004000000000000008c
:1016e800acaa00200400000000000000f4a70020bd
:1016f8006400000000000000b0aa00200400000000
:1017080000000000b4aa002004000000000000004f
:10171800b8aa00200400000000000000bcaa0020b5
:101728000400000000000000c0aa0020040000001f
:101738000000000014aa00201400000000000000af
:1017480028aa00201400000000000000c4aa0020fd
:101758000400000000000000c8aa002004000000e7
:1017680000000000ccaa00200400000000000000d7
:10177800d0aa002004000000000000003caa0020bd
:101788001400000000000000d4aa0020040000009b
:101798000000000050aa0020140000000000000013
:1017a80064aa00201400000000000000d8aa00204d
:1017b8000400000000000000dcaa00200400000073
:1017c8000000000004ab002004000000010000003d
:1017d80004000000e4a90020180000000000000038
:1017e80000a900204400000000000000fcaa00201e
:1017f800010000000000000078aa00200c00000092
:1018080000000000e0aa0020040000000000000022
:10181800fdaa00200100000000000000e4aa00204a
:1018280004000000000000000ca700208000000059
:10183800000000008caa0020080000000000000042
:10184800feaa0020010000000000000000a0002007
:101858000004000000000000e8aa002004000000c6
:1018680000000000fca90020180000000000000093
:10187800ecaa00200400000000000000b0a800202e
:10188800500000000000000000a400200c0200002e
:1018980000000000f0aa0020040000000000000082
:1018a800f4aa00200400000000000000f8aa0020ac
:1018b800040000000000000000000000000000001c
:020000040000fa
:1018c80008200800080000000d0a3e000d0a2d2d12
:1018d8002d2d2d2d2d20537570706f727465642019
:1018e800636f6d6d616e642067726f757073202d04
:1018f8002d2d2d2d2d0000000d0a202a2a2a20002a
:10190800202a2a2a000000000d0a2d2d2d2d2d2d0c
:101918002d2d2d2d204275696c7420696e20636f02
:101928006d6d616e6473202d2d2d2d2d2d2d2d2d7a
:101938002d0000000d0a00000d0a556e6b6e6f77c2
:101948006e20636f6d6d616e642067726f75702ea7
:10195800205472792068656c700d0a001b5b256441
:10196800430000001b5b2564440000000d0a202a88
:101978002a2a205175697474696e67207468652015
:10198800436f6d6d616e642050726f636573736f22
:10199800722e20427965202a2a2a0d0a00000000aa
:1019a8000d0a202a2a2a2053797374656d205265fe
:1019b800626f6f74202a2a2a0d0a000020092c0061
:1019c8000a0d20546f6f206d616e79206172677502
:1019d8006d656e74732e204d6178696d756d20612b
:1019e80072677320737570706f727465643a20251e
:1019f80064210d0a00000000202a2a2a20436f6d66
:101a08006d616e642050726f636573736f723a20f4
:101a1800506c65617365207479706520696e20610a
:101a280020636f6d6d616e642a2a2a0d0a0000001a
:101a3800202a2a2a20436f6d6d616e642050726fd0
:101a4800636573736f723a20756e6b6e6f776e2075
:101a5800636f6d6d616e642e202a2a2a0d0a0000bc
:101a68003e000000081b5b4b25731b5b256444008c
:101a7800081b5b4b000000001b5b4b25731b5b25a1
:101a88006444000025731b5b25644400202a2a2a2d
:101a980020436f6d6d616e642050726f6365737360
:101aa8006f72206275666665722065786365656425
:101ab80065642e2052657472792e202a2a2a0d0a0e
:101ac8000000000072657365740000003a205265da
:101ad80073657420686f7374000000007100000063
:101ae8003a207175697420636f6d6d616e64207042
:101af800726f636573736f720000000068656c70c5
:101b0800000000003a2068656c7000001b5b410013
:101b18001b5b42001b5b43001b5b44001b5b317e6d
:0c1b2800000000001b5b347e000000bfca
:020000040000fa
:101b340030b591ea030f00f18280841a71eb030c33
:101b440005d2121953eb0c03001b71eb0c0140f28c
:101b5400000ccff6e07c1cea430f52d0bceb410fe3
:101b64005fd90c0da4eb135e5ff0010c6cf31f51f5
:101b74006cf31f53def1200c2ad303fa0cf5401941
:101b840041f1000122fa0ef5401923fa0ef56941dc
:101b940012fa0cf2cd0208d349085fea30005fea7a
:101ba400320228bf42f001020134013c5fea500cca
:101bb40072f1004250f1000051eb04514ff4001354
:101bc40013eb410f38bf30bd6ff31301002030bd5c
:101bd400bef1200ebef1200f1ed223fa0ef54019dd
:101be40041f10001cef1200c124218bf012203fa88
:101bf4000cf52a43cee711ea5c0f04bf0020002154
:101c040030bd1cea410f04bf01f00041002030bd8b
:101c140001f00041002030bd21f4801101eb04519a
:101c240030bd004218bf41f00101bceb410f08bfb9
:101c340030bd4ff0fe4141f47801002030bd83f007
:101c44000043841a71eb030e07d28ef0004e001b82
:101c540071eb0e01121953eb0e0340f2000ccff698
:101c6400e07c1cea430fc6d0bceb410f72d90c0dcb
:101c7400a4eb135ec90241ea5051c00241f0004195
:101c8400db0243ea5253d20243f00043def1200c5c
:101c940041d312fa0cf522fa0ef203fa0cf542ead9
:101ca400050218bf42f0010223fa0ef3801a99418b
:101cb400e30ac4f30a0411f0404f03d418d0013ce2
:101cc40040004941013c23d44205c00a40ea415046
:101cd400c90a51eac3715fea500c72f1004250f133
:101ce400000051eb045130bd01002fd00020203cf6
:101cf4000029f9d0b1fa81fcdcf1200e11fa0cf1c3
:101d040030fa0ef510fa0cf02943a4eb0c04d9e7d1
:101d14000020d90730bdaef1200ebef1200f0dd248
:101d2400cef1200c03fa0cf533fa0ef32a4318bf54
:101d340043f00103c01a61f10001b9e721f0004149
:101d4400c00a40ea4150c90a01eb045130bd0020e9
:101d5400002130bd004218bf41f00101bceb410f2e
:0e1d64007ff467afbceb430f3ff463af30bdbd
:020000040000fa
:101d7200f0b581ea030e0ef0004e40f20007cff6f6
:101d8200e07717ea41051ebf95ea070f17ea4304f9
:101d920094ea070f00f0c5806d0da5eb545707f5c7
:101da20080674ff0004646eac12444ea5054c0021c
:101db20046eac32343ea5253d202801a9c4104d218
:101dc2000018644180185c41013f5b084fea32020f
:101dd2000025002140f001004ff0070604e0801ac0
:101de2009c4136d340416441801a9c4136d34041e4
:101df2006441801a9c4136d340416441801a9c411f
:101e020036d340416441801a9c4136d340416441fb
:101e1200013e17d0801a9c4136d340416441801a5a
:101e22009c4136d340416441801a9c4136d34041a3
:101e32006441090201eb156190ea052520f0ff00db
:101e42004540cce7801a9c4156d335e080185c416e
:101e5200c8d20018644180185c41c8d2001864419d
:101e620080185c41c8d20018644180185c41c8d215
:101e72000018644180185c41c8d200186441013ed8
:101e820017d080185c41c8d20018644180185c41a8
:101e9200c8d20018644180185c41c8d2001864415d
:101ea200090201eb156190ea052520f0ff0045408b
:101eb200cce780185c411fd3420918bf44f00104eb
:101ec200490101ebd56100f01f0000eb451021f440
:101ed200801141ea0e01013041f10001244208bfa4
:101ee20020f00100b7f5006f3eda013f49dd01eb5a
:101ef2000751bde8f0407047490101ebd56100f0a0
:101f02001f0000eb451021f4801141ea0e01b7f5e4
:101f1200006f29da013f34dd01eb0751bde8f040e3
:101f22007047004218bf41f00101124218bf43f04e
:101f32000103b7eb410f2cbfb7eb430f1ce0b7eb2c
:101f4200410f04bfb7eb430f16e017ea410f04bf7e
:101f520017ea430f10e017ea410f12d017ea430fb6
:101f620002d0b7eb430f0cd04ef0fe4141f47001aa
:101f72000020bde8f04070474ff0fe4141f4780187
:061f8200f6e77146f4e7ea
:020000040000fa
:101f88002de9f04f85b0109f9df8448067b31c463b
:101f98001546039102904ff0ff333b6002f09eff1d
:101fa800834608b3b8f1010f0cd0b8f1020f0ed078
:101fb800b8f1080f0bd0bcb1b5b10f9ba3b10e9b04
:101fc8003bb911e00f9b7bb10e9b13b90ce05cb1e0
:101fd80055b1dbf8009009eb091a6d4b03eb8a0a3f
:101fe800504601f095fe10b905b0bde8f08fdbf85a
:101ff80000c00ceb0c12664b03eb82035e6a186a96
:10200800002800f0c08033785bb106f12c02002371
:102018000133984200f0b780164612f82c1b0029ad
:10202800f6d1012232700022b262dbf800201202df
:1020380092b20ceb0c10564901eb8001888d42eaf4
:102048000042dbb2134333628b8d01339bb24ff6f0
:10205800ff72934208bf01238b85039b73800e9bfd
:1020680073600f9bb360f5603461029bb36100231a
:1020780086f8243001223277737586f81480336a23
:102088003b60daf828306bb109eb0919404b03ebd8
:102098008909d9f82830002b55d09a6a002a4ed1e0
:1020a8001a464fe0caf8286009eb0913384a02ebd0
:1020b80083035a69dbf814309a420dd009eb0914ee
:1020c800334b03eb8404e3685b6900210bf11400d4
:1020d8009847dbf81430636102233377b8f1010fb6
:1020e80035d0b8f1020f40d073683269f168708852
:1020f80009eb0914264d05eb8404e568b4680094df
:10210800ac68a047f8b94ff0ff333b6009eb0919f9
:102118001f4b03eb8909d9f80c301b69984786f8df
:10212800240096f82430dbb2002b0cbf01234ff0bb
:10213800ff337375504603f059ff04e01a46936a5b
:10214800002bfbd19662504601f082ff4ce709eb69
:1021580009130f4a02eb8303db681b68b2687168d6
:10216800708898470028eed1cde709eb0913084a93
:1021780002eb8303db685b683269f1687088984713
:102188000028e0d1bfe7504601f062ff2ce700bf0e
:0421980000a900207a
:020000040000fa
:10219c002de9f84307460e4698469500284601f06f
:1021ac00cdfe002800f0c9808146542001f0c6fe07
:1021bc000446002800f08c805422002103f058ffc4
:1021cc00c4f830902a46a521484603f051ff043d3f
:1021dc00236b1d4425f007058eb1337884f8343019
:1021ec0053b1334604f134010f3613f8012f01f8c3
:1021fc00012f0ab1b342f8d1002384f84330089b75
:10220c00042b28bf04239946e3626364261d3046e1
:10221c0003f025fc04f1180003f021fc2461c9f142
:10222c000503a361646242463946284603f008fb65
:10223c002060099b03b11c6003f09efc434a1368a9
:10224c0001331360424b1b68002b47d0414b1b687a
:10225c003bb93f4b1b68da6ae36a9a429cbf3c4b22
:10226c001c603d4a136801331360e36a3b490868fc
:10227c0001229a4002430a60394a03eb830302ebc2
:10228c0083035b68a3609968e1604e609e60e06abe
:10229c0083001918890055186561515801310344a0
:1022ac009b00d15003f04afe2a4b1b68002b48d0f0
:1022bc00274b1b68da6ae36a9a4244d2294b4ff0e7
:1022cc0080521a60bff34f8fbff36f8f012036e03f
:1022dc00484603f054ff4ff0ff3030e01c4b1c60bd
:1022ec001368012bbdd11e4d284603f0e8fd05f106
:1022fc00140003f0e4fd05f1280003f0e0fd05f106
:10230c003c0003f0dcfd05f1500003f0d8fd164f46
:10231c00384603f0d4fd154d284603f0d0fd144883
:10232c0003f0cdfd134803f0cafd134803f0c7fdbd
:10233c00124b1f60124b1d6093e74ff0ff30bde84e
:10234c00f8830120fbe70120f9e700bfb0aa0020c9
:10235c00a4aa0020d4aa0020bcaa0020c0aa002055
:10236c00f4a7002004ed00e014aa002028aa002005
:10237c003caa002064aa002050aa0020a8aa002091
:04238c00acaa0020d7
:020000040000fa
:10239000704b9b7d002b00f0dc80f0b583b06d4a64
:1023a000137edbb2927d12f0800f11d1694a137e49
:1023b000dbb2927d12f0010f00f0bc8013f0010f30
:1023c00000f0b880644c634d644e2069217d34e098
:1023d00013f0800fead05f4b5b8b13f00703e5d05f
:1023e0005d4ad3875b4b80221a7607225a831b7e75
:1023f00013f0040f05d0574b9a6a1a7e12f0040f9f
:10240000fad1554b1b6a002bd0d0534a516a022097
:102410009847cbe7f25c8df806200133984298bfcd
:102420000023e3606b6803f00703012b14bf9df8e2
:102430000630bdf80630ab62b9b92b7e13f0010f40
:1024400078d0a268e3689a4271d06a6802f0070205
:10245000012adfd116f813208df8062006eb43027f
:1024600052788df807200133d8e703f04ffd236839
:10247000002baad0227f32b1a2699042a5d3616815
:1024800003209847a1e7a26990429ed1616803208a
:1024900098479ae7226a002a37d0616a38469047ff
:1024a000a36a0133226b934228bf00232de0a16a67
:1024b0002b4a02f8115002eb4102c5f30725557073
:1024c0002ee003f0affc236a002b2ed094f83c20c2
:1024d00032b1a26b904228d3616a0020984724e071
:1024e000a26b904221d1616a002098471de0337ea3
:1024f00013f0040f2bd0b56aa36a0133226b934209
:1025000028bf0023e26a9a42c4d0e26a9a42eed01f
:10251000726802f00702012ac9d0a26a10498d54dc
:10252000a36294f83430002bcbd10127dfe7094bad
:1025300001221a75074a137edbb2927d12f0040f56
:1025400005d013f0040f02d0024e034cede703b0a8
:10255000f0bd70470034004044a900208ca6002044
:042560000ca60020a5
:020000040000fa
:1025640008b5694b9b7dd3b1674b5b8b13f0020fae
:1025740016d0664bff2283f82020022283f8212004
:10258400624b93f820305bb2b3f1ff3f00f08b80d5
:102594005e4b93f820305bb2062b00f09c8008bda4
:1025a400594b5b8b13f0010f07d0584bff2283f874
:1025b4002020022283f82120e2e7534b5b8b13f0a7
:1025c400040f07d0514bff2283f82020012283f807
:1025d4002120d5e74d4b93f820305bb2032b42d03a
:1025e400042b10d0022bcbd1484b1b692bb10021fb
:1025f400464b988802f028fcc2e70121434b988897
:1026040002f022fcbce7414a9369126993420bd061
:102614003e4a9168c85c3c498862013393610a462a
:10262400d369002bfcd1abe7384b5b6973b1374bf3
:102634009b885b0043f00103334a5362d369002b48
:10264400fcd1324b032283f8202099e72e4a5368a9
:1026540043f440335360d369002bfcd12b4b062247
:1026640083f820208ce7294a5369013bd2699a42b6
:102674000cd0254ad369002bfcd1234b986a234afa
:10268400d369d168c8540133d36179e71e4a5368ca
:1026940043f4e0235360d369002bfcd11b4b062287
:1026a40083f82020e5e7194b002283f82020164afe
:1026b400536843f440335360d369002bfcd1124b6d
:1026c40083221a76114b5b6a002b3ff468af0f4ae2
:1026d400906a984763e70d4b002283f8202083f823
:1026e4002120094b83221a761a46538b03f03003b8
:1026f400102bfad1054b5b6a002b3ff450af034a11
:10270400906a98474be700bf0008004384a9002063
:020000040000fa
:102714002de9f84f584b1b68002b40f0a780574b0e
:102724001c6801341c60b4b1554b1b68a3421fd90b
:102734000020544b1b68db6a03eb83039b00524a63
:10274400d358022b28bf0120504b1b68002b18bf05
:102754000120bde8f88f4e4a11684e4b186810608e
:1027640019604d4a13680133136003f02df9dbe758
:10277400002047498346494d4ff0010e424adff895
:1027840004c137e03e4b4ff0ff321a60d1e73c4bb7
:102794001e60cee7de6ad5f800a00efa06f848ea15
:1027a4000a08c5f8008006eb860602eb8606766802
:1027b4009e60d6f80880c3f80c80c8f80490c6f868
:1027c4000890d3f82c904fea890606eb090802eb2f
:1027d400880ac3f814a052f8288008f101084e446e
:1027e40042f82680dcf80080de6ad8f82c309e425d
:1027f40088bf01200b681b68002bc3d00b68db6803
:10280400db685e68b442c2d3d3f81480de689f6884
:10281400be609f68776003f10409d8f804604e45f0
:1028240004bfde68c8f80460c3f814b0d8f80060c8
:10283400013ec8f80060d3f82880b8f1000fa9d091
:102844001e6adf69be60df69776003f1180ad8f891
:102854000460564504bf1e6ac8f80460c3f828b073
:10286400d8f80060013ec8f8006093e70c4a13688a
:102874000133136000206ce7b8aa0020d8aa002016
:10288400c8aa0020a4aa0020f4a70020dcaa0020e3
:10289400a8aa0020acaa0020ccaa0020c0aa00202c
:0428a400d0aa002096
:020000040000fa
:1028a8002de9f04703f06af9504b1a68013a1a60ab
:1028b8001b68002b40f093804d4b1b680bb900241c
:1028c8008ee000234b491c464b4801264b4adff853
:1028d8003ca1dff830c10d68002d5fd0cb68db6804
:1028e800d3f828e0dd691f6aaf601d6adf696f6091
:1028f80003f11808def80450454504bf1d6acef8f8
:1029080004509c62def80050013dcef80050d3f828
:102918001480dd689f68bd609f686f6003f1040ed6
:10292800d8f80450754504bfdd68c8f804505c61e8
:10293800d8f80050013dc8f80050dd6ad0f8009082
:1029480006fa05f848ea0908c0f8008005eb85058d
:1029580002eb85056d689d60d5f80880c3f80c808a
:10296800c8f804e0c5f808e0d3f82c804fea8805d9
:1029780005eb080e02eb8e09c3f8149052f82ee00e
:102988000ef1010e454442f825e0daf80050ed6af0
:10299800df6aaf429fd3ccf800609ce70bb103f02d
:1029a80011f8174b1c686cb1164e012501e0013c6b
:1029b80005d0fff7abfe0028f9d03560f7e7104bdc
:1029c80000221a600f4b1c6854b10f4b4ff0805215
:1029d8001a60bff34f8fbff36f8f012400e000240c
:1029e80003f0aefa2046bde8f08700bfb8aa002081
:1029f800b0aa00203caa0020c0aa0020f4a700200a
:102a0800d0aa0020dcaa002004ed00e0a4aa00203f
:020000040000fa
:102a18002de9f04704464568012904d091464f4ef8
:102a280006f180075ce000224c4e4d4f07f1380953
:102a380006f1800818e023681b684946284698472d
:102a480023681b68b1682846984723681b68f168a3
:102a58002846984723681b6807f14001284698478d
:102a68000122103646450bd07368002bf9d0002a96
:102a7800e1d123681b6807f10c0128469847dae77b
:102a880023681b68374928469847374b03f10c06db
:102a980003f13008324f07f13809403723681b68c3
:102aa80049462846984723681b6856f80c1c284650
:102ab800984723681b6856f8041c284698472368db
:102ac8001b683946284698470c36b045e6d1236836
:102ad8001b6826492846984738e01036be4237d04a
:102ae8007368002bf9d0d9f80410b06803f0f4f932
:102af80080460028f1d177683368002b21dd0c3738
:102b0800174b03f1380a03f1400923681b68514643
:102b18002846984723681b6857f80c1c284698478e
:102b280023681b6857f8041c2846984723681b68c5
:102b380049462846984708f101080c373368434549
:102b4800e3dc23681b68094928469847bde8f087f5
:102b580023681b68064928469847f7e70ca7002012
:102b6800c818000010190000005b00003c190000a4
:042b78004019000000
:020000040000fa
:102b7c002de9f04184b0044601914ff0000846461f
:102b8c0045464f4f43e0013ba36323684bb1236998
:102b9c005bb903f0d3f94ff00108404604b0bde82f
:102bac00f08103f071f8a060f1e704f1100000f07f
:102bbc009dfc0028edd0424b4ff080521a60bff3c1
:102bcc004f8fbff36f8fe4e703f0b8f94ff00008b5
:102bdc00e3e702a803f044f923e002f0cdffa0687c
:102bec0000f056fd804603f0a9f940e0204601f0c4
:102bfc00effafff753fe09e0204601f0e9fafff780
:102c0c004dfe204603f050f9002844d1012602f075
:102c1c00b3ffa36b002bb6d1019b002bd4d0002e9d
:102c2c00d7d003f08bf903f013fa02f0a5ff94f858
:102c3c0044305bb2b3f1ff3f08bf84f8445094f8c2
:102c4c0045305bb2b3f1ff3f08bf84f8455003f049
:102c5c0075f901a902a801f081fe0028ccd120460b
:102c6c0003f022f90028c1d02368002bb5d00199bc
:102c7c0004f1240002f0faff204601f0a9fafff754
:102c8c000dfe0028c2d14ff080533b60bff34f8f35
:102c9c00bff36f8fbae7b8f1000f3ff47eaf02f0cd
:102cac006bff616a19b1236b1968c1f10501a0684a
:102cbc0000f000ff03f042f94ff000086de700bf91
:042ccc0004ed00e033
:020000040000fa
:102cd000f0b540f2ff7681ea030c16ea115e1ebfe2
:102ce000b64516ea1355b54252d021ea465141f491
:102cf0008011a1fb024723ea465343f48013ae44fc
:102d0000a0fb03650cf0004c36197d41a1fb034785
:102d100047f10003a0fb0217f619654153f10003c8
:102d2000094218bf46f0010640f2fe74b3f5007f79
:102d300013d2aef5806ea64523d24cea03312803a8
:102d400041ea155140ea16503203450872f100423b
:102d500050f1000051eb0e51f0bdaef2ff3ea64522
:102d60000fd24ceac321e80241ea555140ea5650dd
:102d7000f202450872f1004250f1000051eb0e5191
:102d8000f0bd1eea0e0f2dd50cf000410020f0bd65
:102d900016ea115f04bf01f000410020004218bf95
:102da00041f0010116ea135f04bf03f00043002263
:102db000124218bf43f0010306ea1354b44218bf8d
:102dc000b64503d00cf000410020f0bd21f00041d9
:102dd00023f00043b1eb065f0cd8b3eb065f09d8d4
:102de00041b13bb10cf0004141f0fe4141f47001b2
:102df0000020f0bd40f20001c7f6f8710020f0bde0
:020000040000fa
:102e00002de9f04784b00446884601921d464ff0f4
:102e100000094e46424f33e02a464146204601f023
:102e200051fb636a73b938b13d4b4ff080521a6061
:102e3000bff34f8fbff36f8f03f086f8012004b00c
:102e4000bde8f08704f1240000f056fb0028f3d021
:102e5000334b4ff080521a60bff34f8fbff36f8f29
:102e6000eae703f071f80020e9e702a802f0feffac
:102e700014e0204601f0b2f9fff716fd4ff001090a
:102e800002f080fea26be36b9a42c5d3022dc3d041
:102e9000019b002be5d0b9f1000fe6d003f054f808
:102ea00003f0dcf802f06efe94f844305bb2b3f14c
:102eb000ff3f08bf84f8446094f845305bb2b3f13b
:102ec000ff3f08bf84f8456003f03ef801a902a85f
:102ed00001f04afde8b902f055fed4f838a0d4f864
:102ee0003c9003f031f8ca45c3d1019904f11000b8
:102ef00002f0c2fe204601f071f9fff7d5fc002870
:102f0000bcd14ff080533b60bff34f8fbff36f8f47
:102f1000b4e7204601f062f9fff7c6fc00208ee717
:042f200004ed00e0dc
:020000040000fa
:102f24002de9f04fd1e901590e68d1f80c808bb02e
:102f3400002da8bf26f002060393b8bf012516f0a2
:102f4400100302900f460493d2e900ab37d05aea3b
:102f54000b0334d0a9f102033c6916f0080104f113
:102f6400ff3405914ff0000108f8041006f0020147
:102f74000691039918bf03f1ff335b1b4139012c00
:102f84001fdc049b002b4cd1059b1bb1013c20236f
:102f940008f804303a690096013a4b46121b08ebd4
:102fa4000401029801f0d8f8029b5b68db0503d5a5
:102fb4007b689842b8bf18460bb0bde8f08f4b460b
:102fc400cae75aea0b0007d1002d05dc581900287e
:102fd400d7dd06980028d4d00af00f000928d4bf02
:102fe40030305730192904f1ff340ed840f0200c4a
:102ff400acf1610cbcf1190f07d8cde90831079287
:1030040003f068f8dde90831079a08f804004fea8c
:103014001a1040ea0b704fea1b1c013d8246e3463e
:10302400ade7d2e900231343aed008eb0403039abf
:0e30340003f8012c023c302308f80430a4e716
:020000040000fa
:023042007047d5
:020000040000fa
:1030440000283cd00368384a002908bf1146b1eb78
:10305400430f36d3354a934235d807ee901af8ee2b
:10306400677a07ee103af8ee476a87eea67adfed44
:10307400306a67eea67af2ee046a77eea67a77ee05
:10308400677afceee77a17ee902a2a498b4206d833
:10309400b2f5ff7f19d8012a3dd9500816e0b2f5e0
:1030a400bf7f3ad2032a3bd950002349a1fb00c079
:1030b4004008a1fb0212520842ea002006e0002068
:1030c40070470020704700207047ff2019498b4249
:1030d40094bf00210121194a136823f002031360ed
:1030e400d369002bfcd1154ad060136823f04073d8
:1030f40043ea01631360136843f002031360d36966
:10310400002bfcd10d4b10225a831a46d369002b95
:10311400fcd1012070470120d8e74ff67f70d5e736
:1031240040f20120d2e700bf0087930340420f0022
:1031340095bfd633801a0600abaaaaaa000800439a
:020000040000fa
:10314400002870d170b50d464ff6ff71394802f072
:1031540057fd00286ad0384b93f90130022b47d130
:10316400354b1b78002b43d0334b9b78002b45d138
:10317400314b5b68002b47d12f4b996800294cd009
:10318400da69144653794bb11832002301338b4268
:1031940043d01446183260790028f7d101226271b5
:1031a40015f0080f02d0244a01219170224a516877
:1031b40001315160918ddbb243ea01432361938d68
:1031c40001339bb24ff6ff72934208bf01231a4e9c
:1031d400b38506f1340002f00bfe0023236045f0b2
:1031e4000405257132696261a360e360206904e02b
:1031f400104802f0fdfd4ff0ff3070bd0d4802f0a5
:10320400f7fd4ff0ff30f8e715f0080fb4d0094888
:1032140002f0eefd4ff0ff30efe7064802f0e8fd64
:103224004ff0ff30e9e74ff0ff3070474ff0ff30c9
:0c323400e3e700bf34a9002000a900203f
:020000040000fa
:103240002de9f84300286ad050f8043ca0f10804a6
:1032500023f00106a719a259934200d0ffde7a6835
:1032600023681340da070fd4204602f0bffa002883
:1032700057d1384602f02cfb0028f0d07b6823f0b1
:1032800001031e441f44eae746f001036360304631
:103290003b6002f0bdf8054602f0a4fc23687a68a2
:1032a0001340db07e0d5dff88ce0dee90089c5f1eb
:1032b000200ca5f1200228fa05f009fa0cfc29fae5
:1032c00002f240ea0c001043012100ea010200234f
:1032d0001343c5f120007346a5f1200212d121fa53
:1032e00000f001fa02f2a94042ea00021ebfdef835
:1032f00000000143cef8001022b1def804100a43aa
:10330000cef80420681c03ebc003a3f1080266603a
:103310003e60a2605a68e2605c60e3689c60bde861
:10332000f883236823f00103e41a636823f00103a0
:083330001e449ee700a40020ea
:020000040000fa
:10333800324b00221a7403f50063314a9a621a4626
:10334800536813f0100ffbd12e4b4222c3f8842090
:103358001a46d2f8843013f0400ffad02a4b0022d4
:103368009a6377225a631a46d36b13f0040ffbd182
:10337800254b022283f830201a46d36b13f0020f34
:10338800fbd1214a136c03f00303032bfad11f4b23
:1033980001225a711a46d37813f0010ffbd0194b4a
:1033a8001b4a1a621a46536813f0040ffbd1154bd7
:1033b800184a5a621a46536813f0080ffbd1114b8a
:1033c8004122c3f8a0201a46d2f8a03013f0400fcb
:1033d800fad00c4b4122c3f810211a46d2f810310a
:1033e80013f0400ffad0094b6ff07f421a6142f296
:1033f800ff725a6104221a62704700bf001400402d
:1034080006013000001c0040001000400008004089
:08341800070101000701020099
:020000040000fa
:103420002de9f04700295ed00f46304b1e6900247d
:103430002f4d1a4600f1010edff8b8c0a04615e086
:1034400010f804a0d5f8049009f00709b9f1010fac
:1034500011bf0cf801a00cf811a00ceb410181f890
:1034600001809360631c01349f423ad96b6803f07a
:103470000703012b11d09168d2f80c904b1cb3427a
:1034800028bf00239945dbd102f0c0fc10b1184bd6
:1034900001229a752046bde8f0879168d2f80c9019
:1034a0004b1cb34228bf00239945edd01ef814a051
:1034b00010f8149049ea0a29d5f804a00af0070a7e
:1034c000baf1010f04d00cf801909360631ccae7b5
:1034d0000cf811900ceb41014fea192981f8019089
:1034e000f3e71c46d0e70c46cee700bf44a9002016
:0834f000003400408ca600200e
:020000040000fa
:1034f80030b4c368db689a6ad869196a8160d86988
:10350800486003f118005168814204bf196a51608c
:1035180000219962116801391160254a1268002a50
:1035280039d15a699868d968816098684860181dc7
:103538005168814204bfd9685160002159611168fe
:1035480001391160da6a1b4c256801219140294331
:103558002160194902eb820201eb820252689a60eb
:103568009468dc6060609060dc6aa20010198000da
:103578000d185d61085801302244920088500f4aa6
:103588001168da6acb6a9a4283bf01200c4b186033
:10359800002030bc70470b4a5168d9618c681c62a6
:1035a800606088609a62116801311160e7e700bfc6
:1035b800b8aa0020c0aa0020f4a70020a4aa0020ce
:0835c800dcaa00203caa00204f
:020000040000fa
:1035d00053ec102bc3f30a512de9f04140f2fd707a
:1035e0004e1e86421d4645d8a1f2ff30002835db2d
:1035f000332831dc284bc0f120084ff0ff3c03faa0
:1036000008f2a1f21f412cfa00fc10ee104a4cea1d
:10361000020c23fa01f24cea020c23fa00fe04ea3f
:103620000c0605ea0e0724ea0c0256ea070425ea0e
:103630000e030fd0002a73f100040bda4ff480154b
:1036400005fa08f425fa01f10c43121925fa00f0e5
:1036500040eb030343ec102bbde8f081002a73f12b
:10366000000303db9fed080bbde8f0819fed080b25
:10367000bde8f0810029efd10a4603f0004343ec96
:10368000102be9e7aff3008000000000000000000d
:0c369000000000000000f0bfffff0f0072
:020000040000fa
:10369c00002856d070b50446c26a2b490968c96a1d
:1036ac008a4245d28169002905db27490968c96a24
:1036bc00c1f10501816102eb8202244901eb820216
:1036cc006169914205d0204a1268d26ae2620120f7
:1036dc0036e0251d284602f0e9f938b91c490b687b
:1036ec00e06a0122824023ea02030b60164b1b683e
:1036fc00db6ae36216490e68012000fa03f23243da
:10370c000a60124a03eb830302eb83035b68a3603a
:10371c009968e1604d609d60e56aab0059198900bc
:10372c0056186661515801442b449b00d15007e058
:10373c00054a1268406cd36a98422cbf00200120c5
:10374c0070bd0020704700bfa4aa0020f4a7002081
:04375c00c0aa0020df
:020000040000fa
:103760002de9f04782b00546294e4ff000080227a8
:103770000ce02777eb685b682269e168608898470e
:1037800041e022464946284601f0f6fcac6a002c8e
:103790003bd0237f012b38d1a369c3f3072202eb6f
:1037a000021206eb8202dbb203eb4303d26902eba7
:1037b000c3096a69d9f814309a4208d0eb685b698a
:1037c000414609f114009847d9f814306b61237d04
:1037d000022bced0042b0dd12777d4f804c0226958
:1037e000e1686088a3680093eb68d3f808a063469b
:1037f000d04708e0012b08d12777eb681b68a26847
:103800006168608898470028bbd002b0bde8f087a7
:0438100000a90020eb
:020000040000fa
:1038140070b504460e46234b1d68234b18680430cc
:1038240002f048f948b9204b1a6820490b68d06a5d
:103834000122824023ea02030b60b4f1ff3f0dd062
:103844002c44194b1b685c60a5421dd9184b1868a1
:10385400154b1968043101f097fe70bd002eefd0ae
:10386400144a5168104b1868816018688c68c460e9
:103874001868043060601868043088601b685a61f6
:10388400136801331360e8e70b4b1868064b19689b
:10389400043101f079fe094b1b68a34284bf074b36
:1038a4001c60dae7d8aa0020a4aa0020c0aa00203d
:1038b400acaa002050aa0020a8aa0020c8aa002070
:020000040000fa
:1038c400882910b536d012dc812943d003dc802945
:1038d40040d0002010bd82290ed08429f9d1196866
:1038e40002b30a1d1a60b1f90020d3171ee0a02903
:1038f4002bd00bdc9029ecd11968073121f007019a
:1039040001f108021a60d1e900230fe0c02901d0b7
:10391400f029ded11a68111d1960136803600023b1
:10392400436005e00a1d1a600a880023c0e90023e9
:103934000120cfe7196822b10a1d1a6091f900200d
:10394400d3e70a1d1a600a78efe71a68111d196097
:103954001268cae719681ab10a1d1a600a68c4e72e
:0c3964000c1d1c600b68c0e90032e1e79c
:020000040000fa
:10397000244b1b681bb1244b01221a60704710b501
:10398000214b00221a60214b1b681b6b1a68b2f195
:10399000a53f03d15a68b2f1a53f23d01b4b18684d
:1039a0001968343102f014fb194b1b68b3fa83f326
:1039b000dbb2c3f11f03174a9900c81802eb80005d
:1039c000446864684460194402460832944212d044
:1039d00003eb83030f4a02eb83035b68da680b4b4c
:1039e0001a6010bd9a68b2f1a53fd7d1db68b3f178
:1039f000a53fd3d1d8e760680a46064901eb8202a9
:103a00005060e5e7b8aa0020dcaa0020a4aa0020a4
:083a1000c0aa0020f4a7002069
:020000040000fa
:103a18002de9f041d2e900230c4686b007465fea5b
:103a2800d37820684968a5680590e66841d0524275
:103a380063eb4303002908db20f002000590b8f18e
:103a4800000f02d1059948072ad5691e05a80290da
:103a58000a20cde90010204600f0f4fcb8f1000f70
:103a680002d1059b59071fd5b8f1000f00f1ff30af
:103a780014bf2d232b2333542269059b0093013a4d
:103a88002b46121a3118384600f064fb7b68db05b8
:103a980003d563689842b8bf184606b0bde8f08100
:103aa8000807d2d42946d1e71a07e5d501382023db
:083ab800e1e70029c0dac5e7cf
:020000040000fa
:103ac000002846d038b50446426c914238bf1146b2
:103ad000c26a8a4202d0806c012800d038bde162ff
:103ae000a0690028a4bfc1f10501a16102eb820217
:103af000184901eb820261699142efd1251d2846e8
:103b000001f0daff38b914490b68e06a01228240fb
:103b100023ea02030b60e36a0f49086801229a4016
:103b200002430a600b4a03eb830302eb83035b68e7
:103b3000a3609968e1604d609d60e06a8300191898
:103b40008900551865615158013103449b00d150db
:0c3b5000c4e77047f4a70020c0aa0020c2
:020000040000fa
:103b5c002de9f04f83b080468b4601f108030193a9
:103b6c00184602f08dfa002834d081460546d8f864
:103b7c000070d8f8046008f1200ad8f81c40a4ebb7
:103b8c000a04a04207da3b68144930469847013cc6
:103b9c00a542f8d14c46651e44b1114c3b682146f8
:103bac0030469847013db5f1ff3ff7d1019950469a
:103bbc0002f0b8fa3b680b49304698473b685146cf
:103bcc00304698470aeb0903c8f81c30c8f818307f
:103bdc00c8f8d4b003b0bde8f08f00bfc81800001f
:083bec00cc180000d018000005
:020000040000fa
:103bf400224ad36823f4e0631b041b0c43f0bf6325
:103c040043f40033d360bff35f8f62b6e02182f8e0
:103c140023101b4b83f832134ff48020586083f831
:103c240033134ff40020586083f834134ff480109a
:103c3400586083f835134ff40010586083f8461326
:103c44004020986083f847138020986083f84813d5
:103c54004ff48070986083f849134ff400719960b1
:103c6400536a43f480235362536943f0100353614e
:103c7400536a43f400335362704700bf00ed00e021
:043c840000e100e07b
:020000040000fa
:103c880000283ed038b50446c36b002b3bd0006cef
:103c9800a0fb03230bb1002036e00d4601f06effb8
:103ca8002268216ce36b03fb01f3d018a0600020ad
:103cb800a06362605b1a1344e360ff2384f8443016
:103cc80084f84530a5b923691bb902f039f90120f8
:103cd8001ae004f11000fff70bfc0028f5d00b4b9d
:103ce8004ff080521a60bff34f8fbff36f8fece72e
:103cf80004f1100002f0e5f804f1240002f0e1f804
:103d0800e3e700207047002038bd00bf04ed00e065
:020000040000fa
:103d180070b504468569036b4bb12e7886b1b5f949
:103d2800040001f0d7fa84f84000304670bd4ff621
:103d3800ff71383001f062ff0028eed10026f4e769
:103d480002f006fa06466868b0f1ff3f10d1a8688d
:103d5800b0f1ff3f12d1e868b0f1ff3f14d12869f4
:103d6800b0f1ff3f16d1304602f0f6f90126dce744
:103d780000b201f0affa84f83c00e8e700b201f0c5
:103d8800a9fa84f83d00e6e700b201f0a3fa84f846
:103d98003e00e4e700b201f09dfa84f83f00e2e754
:020000040000fa
:103da80000283bd070b50446826c013a8264c06a30
:103db800616c884234d00ab1002070bd251d2846a8
:103dc80001f076fe38b917490b68e06a0122824093
:103dd80023ea02030b60636ce362c3f10502a2618c
:103de80010490e68012000fa03f232430a600e4ab5
:103df80003eb830302eb83035b68a3609968e160cc
:103e08004d609d60e56aab005919890056186661d6
:103e1800515801442b449b00d150cee700207047f5
:0c3e28000020cae7c0aa0020f4a7002078
:020000040000fa
:103e3400002832d11d4b1b78002b31d170b50c46b4
:103e44001b4801f0c9ff012802d04ff0ff3070bdbc
:103e5400184801f0c1ff012825d1144e0122327007
:103e64002368f3606169b1616168f161a168b1605f
:103e740021697162e16831620025b5627560b570cf
:103e84003563b285a269326172619b6931460a4821
:103e94009847022373702846d9e74ff0ff307047e4
:103ea4004ff0ff3070474ff0ff30d0e700a90020fb
:0c3eb40034a9002038a90020a94d00000e
:020000040000fa
:103ec00008b5194b9847194b9847eff3108172b614
:103ed000174ad2f8883043f47003c2f88830bff331
:103ee0004f8fbff36f8f01b962b6124a936823f008
:103ef000010393601346da6812f0010ffbd10d4bfa
:103f000024225a6001229a6002f03af90a4b23f007
:103f10007f03074a9360094b9847094b9847094b21
:103f2000984702f0cbf8fee7ff4c0000ff4c000082
:103f300000ed00e00060004100000000e94a0000e0
:083f4000ff4c0000ff4c0000e3
:020000040000fa
:103f480038b5044610f0070f05d020f007030833f2
:103f5800834225d91c4602f07df8184b1b686bb1cb
:103f680024b3174b1b681c4449f6f77294420bd8cc
:103f7800a3420cd3fef794fc1ae000240f4a114b1d
:103f880023f007031360ebe7fef78afc10e00b4a07
:103f980015681d440a4b1c60fef782fc5db907e0fa
:103fa80002f058f8054b1b68002be6d0fef778fcaa
:103fb80002f013f80025284638bd00bf9caa00204f
:083fc800a0aa00200700002060
:020000040000fa
:103fd00070b506460d464ff4127002f0b5f804466f
:103fe000002830d04ff41272002102f047f826600a
:103ff000656004f12003e361a36104f1d80304f5d3
:10400000127108e0c4f8d030c4f8cc305b601b609b
:104010005c338b420ed0d4f8cc20002af2d01a6048
:10402000d4f8d0205a601360d4f8cc205360c4f880
:10403000cc30ede70023a360064b1b682bb1054b8a
:104040005a6894605c60204670bd024b1c605c60e6
:08405000f9e700bf8caa002073
:020000040000fa
:1040580070b5044685692b7843b190f84010b5f9de
:10406800040001f05bfd236b7bb370bd02f070f8b8
:1040780006466868b0f1ff3f0fd1a868b0f1ff3f6e
:1040880011d1e868b0f1ff3f13d12869b0f1ff3fc3
:1040980015d1304602f060f8e5e794f83c1000b21c
:1040a80001f03cfde9e794f83d1000b201f036fd5f
:1040b800e7e794f83e1000b201f030fde5e794f828
:1040c8003f1000b201f02afde3e704f1380001f0e7
:0440d8008dfecae7a8
:020000040000fa
:1040dc000eb430b5adf5816d0df2144353f8042bcd
:1040ec0001934ff4806102a800f098fc421e40f24c
:1040fc00fe339a4221d8044602ab00221a54124bca
:10410c001b680344b3f5806f24bf0f4b1a600e4b32
:10411c001b680e4d1d4402a9284602f003f82946df
:10412c00002001f005fe14f0030218bfc2f10402d6
:10413c00054b19680c4414441c600df5816dbde8e9
:10414c00304003b0704700bfe8aa002000a0002058
:020000040000fa
:10415c002de9ff471d460c9b13f0010906468a46c4
:10416c00144601d195420bd822465146304601f0f7
:10417c0063fca54204d82546284604b0bde8f08768
:10418c002f1b102f3a464ff0200128bf10226846f3
:10419c00b84601f06dffb8f10f0f11d83b096ff065
:1041ac000f0202fb03726946304601f045fcb9f17f
:1041bc00000fe1d122465146304601f03dfcdbe7d1
:1041cc0010226946304601f037fca8f11008e2e7ee
:020000040000fa
:1041dc0070b5054601f0d0fc95f8454064b2002c52
:1041ec0011dd6b6a7bb105f1240606e001f088ff56
:1041fc00013c64b23cb16b6a2bb13046fff776f9e7
:10420c000028f5d0f2e7ff2385f8453001f096fe43
:10421c0001f0b2fc95f8444064b2002c11dd2b691e
:10422c007bb105f1100606e001f06aff013c64b2b7
:10423c003cb12b692bb13046fff758f90028f5d06b
:0e424c00f2e7ff2385f8443001f078fe70bde4
:020000040000fa
:10425a0030b50d4689b0044620220021684601f097
:10426a0008ff2878a8b16b7863b1013d012015f8e1
:10427a00013f83b921460125084611f8013bc3b91c
:10428a00001b06e023461a46013311788142fad010
:10429a00101b09b030bd5a0908a901eb820203f0cc
:1042aa001f0352f8201c00fa03f30b4342f8203c88
:1042ba00dde75a090df1200c0ceb820203f01f0313
:0e42ca0052f8202c05fa03f31342d5d1d8e7a1
:020000040000fa
:1042d8001b4b1c4a1a604ff622029a814ff4403257
:1042e8005a601a46d369002bfcd1154a136843f06b
:1042f80002031360d369002bfcd1134b00221a620e
:104308009a62da6283f8342083f83c209a63da8769
:104318001a609a60da601a751a779a61084b5b68b6
:1043280003f00703012b084b14bf802240221a63b5
:104338001a61034b80229a7504229a75704700bf50
:0c434800003400400401104044a9002093
:020000040000fa
:10435400f0b51b4ad36a956a61b30e46ab422cd0c2
:10436400d2f830c00122174fa0f1020e164c0138ca
:104374000be0e15c815401339c4598bf0023b242b9
:1043840013d2511cab4211d00a46796801f00701df
:104394000129eed114f813100ef8121004eb4301a6
:1043a400497800f812100133e6e71d46044bdd623c
:1043b4001046f0bd1d460a46f8e70022f6e700bfa6
:0c43c40044a90020003400400ca600209a
:020000040000fa
:1043d000842910b523d00cdc812903d0822913d085
:1043e00080290bd119680c1d1c600b6803601a60d2
:1043f00013e0902921d003dc882917d0002010bdbc
:10440000a029efd0c029ece719680c1d1c600b68cf
:104410000360d1171046c3e900010120efe71968d6
:104420000c1d1c600b6803601a80f6e719680c1df0
:104430001c600b6803601a70efe719680c1d1c60a4
:0c44400009680160d317c1e90023e6e71a
:020000040000fa
:10444c002de9f84f04460c9f6668d4f80cb024692b
:10445c0010463a68013c002502f0020a0b9a0bf850
:10446c000450002e1946b8bf0126012390464fea8e
:10447c00e279002c03dcd3b12046bde8f88f50ea7a
:10448c00010209d1721b002a06dc0a9a521b002a6f
:10449c00f1ddbaf1000feed042464b4601f0b8f90f
:1044ac00013c134630320bf804200135e1e73b6840
:0844bc0023f010033b60dfe771
:020000040000fa
:1044c40070b504461646856b026c5ab903681bb175
:1044d40000200135a56370bd8068fff763fc0023ed
:1044e400a360f6e76eb9406801f08bfd6368226c47
:1044f40013446360a268934219d32368636030460f
:10450400e7e7c06801f07dfd226c5242e368134482
:10451400e36021688b4202d2a3681a44e260022e4f
:1045240001d00020d5e725b1013d0020d1e7304678
:06453400cfe70020cde7f7
:020000040000fa
:10453a0030b50d46097889b0044609b16b782bb9b4
:10454a00204600f09cfa001b09b030bd2022002151
:10455a00684601f08efd013d012015f8013fa3b91f
:10456a0021460125084611f8013b002bebd05a09d8
:10457a000df1200c0ceb820203f01f0352f8202ce1
:10458a0005fa03f31342edd0dde75a0908a901eb56
:10459a00820203f01f0352f8201c00fa03f30b43b4
:0645aa0042f8203cd9e7b5
:020000040000fa
:1045b000f0b50c4649682368a768e56887b000290c
:1045c0000593a4bf23f00203059305ab02930823d0
:1045d000cde900730646d2e900232046fff736fff7
:1045e000059bd90642bf00f1ff3030232b54059bb9
:1045f0001a0742bf00f1ff3020232b542269059b8c
:104600000093013a3b46121a29183046fff7a6fddf
:104610007368db0503d563689842b8bf184607b0d6
:02462000f0bdeb
:020000040000fa
:02462200fee7b1
:020000040000fa
:1046240080b5164c164f174edff860802368bbb177
:1046340001f0a6fafb68dd68281d01f03bfa336837
:10464400013b33602368013b236001f07bfc286b52
:1046540001f099fd284601f096fd2368002be7d16f
:10466400094b1b68012be1d94ff08053c8f8003087
:10467400bff34f8fbff36f8fd8e700bfb4aa0020fa
:1046840064aa0020b0aa0020f4a7002004ed00e0f2
:020000040000fa
:1046940010b4194b4ff480321a601a61002283f867
:1046a400502083f838204ff40011c3f80011c3f8e8
:1046b400101183f85521012183f85b1183f85c11f3
:1046c40083f83a21202083f83d01022083f83e013b
:1046d4000324c3f8904183f8c00183f8c10183f82f
:1046e400c81183f8c91183f8b021332283f8b421a7
:0c46f4005df8044b704700bf00800041df
:020000040000fa
:1047000010b501f093fcfff7c5fffef715fefff7ac
:10471000e3fdfef796fc00f0f7f801f053fb0e49bd
:104720000020fff787fb0d4c20600d4801f062f977
:104730000c49002000f050f860600b4c214600202e
:1047400000f0f6fb04f10c01012000f0f1fb01f098
:10475000e3fcfff74ffa10bd405c000084aa002084
:0c47600094aa0020006100003c5e0000f4
:020000040000fa
:10476c0000b583b0124b01930023009380221149b2
:10477c001148fdf70dfd012804d0104b1b6803b048
:10478c005df804fb4ff0200383f31188bff36f8fa8
:10479c00bff34f8f0a4b4ff0ff321a60094b0122c7
:1047ac001a60094b00221a6000f02cfce5e700bff0
:1047bc00c4aa0020686100002546000004ab00205c
:0c47cc00c8aa0020d4aa0020d8aa00200f
:020000040000fa
:1047d80038b505460c46154b1b7843b1fdb90cb3eb
:1047e800134b93f900305bb14ff0ff3038bd1148df
:1047f80001f0f0fa01280fd10c4b01221a70ede7f5
:10480800a0680b4b986062685a600221197053685f
:10481800216898470020e9e74ff0ff30e6e74ff0be
:10482800ff30e3e74ff0ff30e0e700bffdaa0020cc
:0848380078aa0020e0aa00208c
:020000040000fa
:10484000eff30980bff36f8f154b1a681ef0100f3e
:1048500008bf20ed108a20e9f04f10602de9090013
:104860004ff0200080f31188bff34f8fbff36f8f9d
:10487000fff77ef84ff0000080f3118809bc19683b
:104880000868b0e8f04f1ef0100f08bfb0ec108ab7
:1048900080f30988bff36f8f704700bfaff30080cc
:0448a000a4aa0020a6
:020000040000fa
:1048a400f8b500f01dfb60b10746066806eb061478
:1048b400a400124d25444ff6ff71284601f0a0f9db
:1048c40000b9f8bd0e4b1c442046fff723fa00281c
:1048d400f7d03946204600f00dff2046fff7bafb1b
:1048e4006068013860600022a2704ff0ff333b61c2
:1048f4007a71284601f07cfae3e700bf34a900206e
:0449040000a90020e6
:020000040000fa
:10490800144b01221a601a46d369002bfcd1114bb3
:104918004ff480725a601a46d369002bfcd10d4bb4
:104928004322da600c4a1a601a46d369002bfcd17c
:10493800084b10225a831a46d369002bfcd1074b27
:10494800002283f8212083f82020024b83229a75c5
:10495800704700bf000800431600100084a900201b
:020000040000fa
:1049680070b505460c4601f009f9134b1a6823681f
:10497800b3f1ff3f1ad06968104800682e68864274
:1049880005d0914203d80023236001240fe0501a78
:10499800834203d800232360012408e09b1a0b44b8
:1049a8002360284601f05efa002400e0002401f0ac
:1049b800c7fa204670bd00bfd8aa0020ccaa0020a4
:020000040000fa
:1049c80070b5144b144a0021934206d3134a0025ac
:1049d800d2e9003123b919b970bd03f8011bf3e717
:1049e800946858180c3294b11446834208d111f0d7
:1049f800030318bf012303eb910102eb8102e7e7f0
:104a080014f8016b03f8016befe703f8015b8342cd
:104a1800fbd1dde700000020000000201816000090
:020000040000fa
:104a2800f0b59bb004460d46164600214c2207a857
:104a38001f4601f01ffb4ff0ff33029303f20313ed
:104a4800039304b901accde9044555b16a1e002da4
:104a5800069208da094b4f221a604ff0ff301bb05c
:104a6800f0bd2a46f3e7002323703a46314602a8f0
:104a7800cde9074401f06cf9f1e700bff8aa00207e
:020000040000fa
:104a8800c9b2f8b50446f1b103469a0718461ed1d3
:104a98004ff001354d431e4656f8044b84ea05078e
:104aa800a4f10132a7f1013022ea040220ea07004a
:104ab800024312f0803f11d0184613f8012b2ab197
:104ac8008a42f9d102e001f0ddfa2044f8bd13f87a
:104ad800012b002afad08a42d7d1f7e73346dae722
:020000040000fa
:104ae8000e4a38b5002313600d4a0e4c13600e4a67
:104af8000e4d13600e4a13600e4a13600e4a53623d
:104b080013610123936001f03efb01f03cfbac42d2
:104b180000d338bd54f8043b9847f8e7f4aa0020be
:104b2800bca8002070020000b8a800207402000091
:0c4b3800b0a80020b4a80020c0a80020f5
:020000040000fa
:104b4400202122232424252526262727282828280f
:104b5400292929292a2a2a2a2b2b2b2b2c2c2c2ca9
:104b64002c2c2c2c2d2d2d2d2d2d2d2d2e2e2e2e71
:104b74002e2e2e2e2f2f2f2f2f2f2f2f00011702e7
:104b84001d1813031e1b190b1408040d1f161c12e9
:0c4b94001a0a070c1511090610050f0e77
:020000040000fa
:104ba00010b510f47f4f02d00024204610bd0446fb
:104bb0001048fff7b1f8d0b1e3b20e4a126a9a4238
:104bc00010d90c4a526a2c2101fb03231a6aa24213
:104bd00001d0002407e093f82440e4b2002283f8d7
:104be000242000e000240348fff736fadde7002424
:084bf000dbe700bf00a9002073
:020000040000fa
:104bf80070b5d0e90245a54217d10122a1f12003e1
:104c0800c1f1200622fa06f602fa03f333438a407a
:104c1800db43d6431ab10b490a6832400a605a1c72
:104c28001fbf084a51680b4053604368ac6043f0ab
:104c3800010223f00103e5604260c25842f001021c
:084c4800c25070bd00a4002061
:020000040000fa
:104c50002de9ff41134dd1f80080af88adf80c70fd
:104c600006462868029002aca8798df80e00002a4a
:104c700018bf1446d1e901571a461bb9204601f066
:104c800005fa0246002d02dbaa4228bf2a46cdf8cb
:104c900000803b4621463046fff760fa04b0bde88d
:084ca000f08100bf7861000003
:020000040000fa
:104ca800f0b50c4649682368a668e76887b000290c
:104cb8000593a4bf23f00203059305ab02930a23cf
:104cc800cde900630546d2e900232046fff7bafb89
:104cd8002269059b0093013a3346121a391828466f
:104ce800fff738fa6b68db0503d563689842b8bfed
:064cf800184607b0f0bdf4
:020000040000fa
:024cfe007047fd
:020000040000fa
:104d00002de9f04101281cd890460f46044600ebdf
:104d10004005ad000e48284401f020f9a0b10c4e2a
:104d200004eb440456f824301b6841463846984743
:104d3000044605f10800304401f05cf82046bde867
:104d4000f0814ff0ff34f9e74ff0ff34f6e700bf92
:044d5000e4a90020b2
:020000040000fa
:104d54002de9f04101281cd890460f46044600eb8b
:104d64004005ad000e48284401f0f6f8a0b10c4e01
:104d740004eb440456f82430db684146384698472f
:104d8400044605f10800304401f032f82046bde83d
:104d9400f0814ff0ff34f9e74ff0ff34f6e700bf3e
:044da400e4a900205e
:020000040000fa
:104da80038b50378ebb190f90130022b19d10446dc
:104db800826a9169c1f3072303eb03130c4800ebe4
:104dc8008300cdb205eb4503c56905ebc3052b6927
:104dd800994207d0204601f009f929462046fef7f6
:104de800bbfc38bd2946204600f0c2f9f5e700bff4
:044df80000a90020ee
:020000040000fa
:104dfc0008b583b2cbb9184603eb43020f4b03eb58
:104e0c0082035a68a2b100eb40000c4b03eb80000c
:104e1c00536a8068984701280cd043b263b10228ca
:104e2c000cbf01204ff0ff3008bd4ff0ff30fbe707
:104e3c000020f9e70220f7e70020f5e778aa002028
:020000040000fa
:104e4c00104b00229a61da610f4b83221a765a6852
:104e5c0022f480225a601a46d369002bfcd161b12e
:104e6c00084b032283f8202041ea4001064b59628b
:104e7c001a46d369002bfcd17047024b042283f8ed
:0c4e8c002020f1e784a90020000800436a
:020000040000fa
:104e980070b582b00d4d002401940126009623467a
:104ea8004ff4807229460a48fdf774f9094b0193bb
:104eb800009623464ff4806205f110010648fdf77d
:104ec80069f9fff74ffc02b070bd00bf54590000ec
:0c4ed8003d60000098aa00204d60000022
:020000040000fa
:104ee400431e13f1030f16d810f47f4f15d1c3b22c
:104ef4000d4a9268934212d203eb43020a4bdb69d8
:104f040003ebc2031a6982420bd15a79002a08bf03
:104f14000023184670470023fbe70023f9e700232a
:0c4f2400f7e70023f5e700bf00a900201c
:020000040000fa
:104f300001281bd800eb40030f4a12f82330c3b9f5
:104f400030b414464200131804eb830300255d704f
:104f50000d685d604d689d600d7a9d70497ad970cd
:104f60000244012304f8223030bc70474ff0ff3078
:0c4f700070474ff0ff307047fca9002094
:020000040000fa
:104f7c0070b5d8b10546a0fb0132d2b901fb00f0e7
:104f8c0010f1490f17d80c464830fef7d7ff0646ec
:104f9c0068b114b100f1480300e003463360f563d7
:104fac00346401213046fef769fe00e000263046ed
:0a4fbc0070bd0026fbe70026f9e7b0
:020000040000fa
:104fc600c1f30a5340f21e42d21a0edd202a0ad835
:104fd600cb0243ea505040f00040d04090eae170e6
:104fe600b0ebe1707047002070474b00004218bfdd
:104ff60043f0010313f5001f88bf21f0004111f0b3
:0a500600004058bf6ff000407047f3
:020000040000fa
:1050100010b50e4b1a6842f460021a601a6842f02a
:1050200060421a6000f0befc0024094b1c6000f0d6
:1050300081ff084a136843f04043136000f09efc70
:10504000fef796fc00f08efd204610bd20ed00e03e
:0850500000ab002034ef00e08a
:020000040000fa
:1050580070b5012817d8044600eb4005ad000d488f
:10506800284400f077ff88b10a4e04eb440456f850
:1050780024301b699847044605f10800304400f0c5
:10508800b5fe204670bd4ff0ff34fae74ff0ff340d
:08509800f7e700bfe4a90020c6
:020000040000fa
:1050a00070b5012817d8044600eb4005ad000d4847
:1050b000284400f053ff88b10a4e04eb440456f82c
:1050c00024305b699847044605f10800304400f03d
:1050d00091fe204670bd4ff0ff34fae74ff0ff34e9
:0850e000f7e700bfe4a900207e
:020000040000fa
:1050e80070b5012817d8044600eb4005ad000d48ff
:1050f800284400f02fff88b10a4e04eb440456f808
:1051080024309b689847044605f10800304400f0b5
:105118006dfe204670bd4ff0ff34fae74ff0ff34c4
:08512800f7e700bfe4a9002035
:020000040000fa
:1051300070b5012817d8044600eb4005ad000d48b6
:10514000284400f00bff88b10a4e04eb440456f8e3
:1051500024305b689847044605f10800304400f0ad
:1051600049fe204670bd4ff0ff34fae74ff0ff34a0
:08517000f7e700bfe4a90020ed
:020000040000fa
:10517800f8b504460e461546c3681b69984785f876
:10518800240095f82430dbb2002b0cbf01274ff028
:10519800ff376f752d6a204600f028ffb36853b1ba
:1051a800236b01332363b368f2682946384698476e
:0851b800236b013b2363f8bdea
:020000040000fa
:1051c000141b0000235c000003000000181b0000fb
:1051d000855e0000030000001c1b0000a55b0000b2
:1051e00003000000201b0000215d00000300000000
:1051f000241b0000bd570000040000002c1b000011
:085200008d57000004000000be
:020000040000fa
:1052080070b50e4604460f4d08b92c6844b12046c7
:105218003146fff71ef8044423781bb92b601c465f
:10522800204670bd31462046fff783f9225c2318db
:105238002b6022b101332b6000232354f0e72a604e
:08524800eee700bff0aa002010
:020000040000fa
:1052500010b50278202a034600f10100f9d0a2f12e
:1052600009010429f5d92b2a07d02d2a11d10121b2
:105270000133013b00200a2403e00021f8e76043ea
:10528000801a13f8012f303a092af8d901b940429f
:0652900010bd0021ede756
:020000040000fa
:02529600fee731
:020000040000fa
:105298000e4b002283f8212083f820200c4a136843
:1052a80023f002031360d369002bfcd1084a13686a
:1052b80043f002031360d369002bfcd1044b102286
:1052c8005a831a46d369002bfcd1704784a9002061
:0452d8000008004387
:020000040000fa
:1052dc0038b5044600f064fe002c16db63090c495b
:1052ec0051f8235004f01f04e54005f0010501229c
:1052fc0002fa04f4203341f82340bff34f8fbff37d
:10530c006f8f00f056fe284638bd0025f9e700bf28
:04531c0000e100e0cc
:020000040000fa
:1053200010b5054c227832b9044b13b10448aff3e1
:1053300000800123237010bdb0a9002000000000f0
:105340000000000008b5034b1bb103490348aff34d
:10535000008008bd00000000b4a90020000000008b
:020000040000fa
:10536000012817d838b50d46044600eb40030a481b
:1053700000eb8300083000f031fd012809d12968d5
:10538000054b6000021943f8221003eb820301224f
:0c5390001a7138bd704700bfe4a900206e
:020000040000fa
:10539c004ff4001c1ceb410f98bf1ceb430f11d8b2
:1053ac0051ea030c50ea4c0c5cea020c0cd004d20f
:1053bc0082428b418041013070479042994180413b
:0c53cc000130704700207047012070473e
:020000040000fa
:1053d8000c4b93f820305bb20bb10020704710b52e
:1053e800084b9880d9605a6100229a601a6101249a
:1053f8009c701a7083f821202146fff723fd204670
:0854080010bd00bf84a90020c3
:020000040000fa
:1054100000090138202813d9b0f5007f05d2094bc7
:1054200003ebd00010f8040c7047b0f5e05f06d82d
:10543000044b03ebd01010f8040c103070473f20e1
:08544000704700bf444b00005f
:020000040000fa
:1054480030b50c4a002312f8134024b902eb430389
:105458005b78184630bd01680d78a54209bf02eb9c
:10546800430301335b78013114bfdbb201600a2bbf
:08547800e9d9eee7745d0000c4
:020000040000fa
:105480004ff4001c1ceb410f98bf1ceb430f11d8cd
:1054900051ea030c50ea4c0c5cea020c0ad004d22c
:1054a00082428b4180414042704790429941804105
:0854b0004042704700207047e4
:020000040000fa
:1054b8004ff4001c1ceb410f98bf1ceb430f11d895
:1054c80051ea030c50ea4c0c5cea020c0ad004d2f4
:1054d8009042994180414042704782428b418041cd
:0854e8004042704700207047ac
:020000040000fa
:1054f0000b4b93f820305bb20bb10020704710b516
:105500000c46074b98800021d96059619c601a6154
:105510009970197083f82110fff798fc012010bdd5
:0455200084a900203a
:020000040000fa
:1055240010b50b4c94f8204064b20cb1002010bdaf
:10553400074ca080e360029b6361a16022610021ab
:10554400a170217084f82110fff77efc0120eee7a2
:0455540084a9002006
:020000040000fa
:1055580010b540b90a4b4ff080521a60bff34f8f15
:10556800bff36f8f10bd044600f074fd0021204684
:10557800fef74cf9fdf794f90028f3d1eae700bfec
:0455880004ed00e04e
:020000040000fa
:10558c0030b40d68b5f1ff3f02d000f1080202e023
:10559c00026904e01a4653681c68ac42fad9536895
:1055ac004b6099608a605160086103680133036045
:0455bc0030bc704748
:020000040000fa
:1055c000f8b50f461646fff78dfc50b1054600684a
:1055d00000eb0010064c04eb80042046fef79cfb19
:1055e00000b9f8bdaf60ee602046fef735fdf8e784
:0455f00000a90020ee
:020000040000fa
:1055f40060b908b50a4b93f9003053b1084b5b68a6
:1056040053b19b6806488068984708bd4ff0ff3047
:1056140070474ff0ff30f8e74ff0ff30f5e700bf79
:0456240078aa002040
:020000040000fa
:1056280060b908b50a4b93f9003053b1084b5b6871
:1056380053b1db68064a9068984708bd4ff0ff30c1
:1056480070474ff0ff30f8e74ff0ff30f5e700bf45
:0456580078aa00200c
:020000040000fa
:10565c0060b908b50a4b93f9003053b1084b5b683d
:10566c0053b15b6906488068984708bd4ff0ff301e
:10567c0070474ff0ff30f8e74ff0ff30f5e700bf11
:04568c0078aa0020d8
:020000040000fa
:1056900010b503681b6808494068984780220021bc
:1056a000064800f0ebfc064b1c681cb12046fdf7d9
:1056b000c7fdfbe710bd00bf741900000ca7002058
:0456c0008caa002090
:020000040000fa
:1056c40010b5013922b9034610461a4400210be0f3
:1056d400034611f8014f03f8014b013a002cf4d0b2
:1056e4001846efe703f8011b9342fbd1002808bfdb
:0456f400184610bd87
:020000040000fa
:1056f80070b428300025012601e003f12800036872
:105708006bb19c690a699442f7d11a7f012af4d1d6
:105718009a6a02601d775e759d621d70efe770bc26
:025728007047c8
:020000040000fa
